{
  "_format": "hh-sol-artifact-1",
  "contractName": "CargoTrackingDapp",
  "sourceName": "contracts/CargoTrackingDapp.sol",
  "abi": [
    {
      "inputs": [],
      "stateMutability": "nonpayable",
      "type": "constructor"
    },
    {
      "anonymous": false,
      "inputs": [
        {
          "indexed": true,
          "internalType": "uint256",
          "name": "cargo_tracking_number",
          "type": "uint256"
        },
        {
          "indexed": false,
          "internalType": "address",
          "name": "sender_address",
          "type": "address"
        },
        {
          "indexed": false,
          "internalType": "address",
          "name": "customer_address",
          "type": "address"
        },
        {
          "indexed": false,
          "internalType": "uint256",
          "name": "_Status",
          "type": "uint256"
        },
        {
          "indexed": false,
          "internalType": "uint256",
          "name": "Line",
          "type": "uint256"
        },
        {
          "indexed": false,
          "internalType": "uint256",
          "name": "shipping_date",
          "type": "uint256"
        },
        {
          "indexed": false,
          "internalType": "uint256",
          "name": "delivery_date",
          "type": "uint256"
        }
      ],
      "name": "CargoAdded",
      "type": "event"
    },
    {
      "anonymous": false,
      "inputs": [
        {
          "indexed": true,
          "internalType": "uint256",
          "name": "cargo_tracking_number",
          "type": "uint256"
        },
        {
          "indexed": false,
          "internalType": "enum CargoTrackingDapp.shipping",
          "name": "Status",
          "type": "uint8"
        }
      ],
      "name": "ChangeStatus",
      "type": "event"
    },
    {
      "inputs": [],
      "name": "Status",
      "outputs": [
        {
          "internalType": "enum CargoTrackingDapp.shipping",
          "name": "",
          "type": "uint8"
        }
      ],
      "stateMutability": "view",
      "type": "function"
    },
    {
      "inputs": [],
      "name": "callCreateFunction",
      "outputs": [],
      "stateMutability": "nonpayable",
      "type": "function"
    },
    {
      "inputs": [
        {
          "internalType": "uint256",
          "name": "cargo_tracking_number",
          "type": "uint256"
        },
        {
          "internalType": "uint8",
          "name": "new_status",
          "type": "uint8"
        }
      ],
      "name": "changeStatus",
      "outputs": [],
      "stateMutability": "nonpayable",
      "type": "function"
    },
    {
      "inputs": [
        {
          "internalType": "uint256",
          "name": "cargo_tracking_number",
          "type": "uint256"
        }
      ],
      "name": "getData",
      "outputs": [
        {
          "internalType": "uint256",
          "name": "",
          "type": "uint256"
        },
        {
          "internalType": "address",
          "name": "",
          "type": "address"
        },
        {
          "internalType": "address",
          "name": "",
          "type": "address"
        },
        {
          "internalType": "enum CargoTrackingDapp.shipping",
          "name": "",
          "type": "uint8"
        },
        {
          "internalType": "enum CargoTrackingDapp.Transportation",
          "name": "",
          "type": "uint8"
        },
        {
          "internalType": "uint256",
          "name": "",
          "type": "uint256"
        },
        {
          "internalType": "uint256",
          "name": "",
          "type": "uint256"
        }
      ],
      "stateMutability": "view",
      "type": "function"
    },
    {
      "inputs": [
        {
          "internalType": "uint256",
          "name": "cargo_tracking_number",
          "type": "uint256"
        }
      ],
      "name": "getStatus",
      "outputs": [
        {
          "internalType": "enum CargoTrackingDapp.shipping",
          "name": "",
          "type": "uint8"
        }
      ],
      "stateMutability": "view",
      "type": "function"
    },
    {
      "inputs": [
        {
          "internalType": "uint256",
          "name": "cargo_tracking_number",
          "type": "uint256"
        }
      ],
      "name": "isExist",
      "outputs": [
        {
          "internalType": "bool",
          "name": "",
          "type": "bool"
        }
      ],
      "stateMutability": "view",
      "type": "function"
    }
  ],
  "bytecode": "0x608060405234801561001057600080fd5b50600080546001600160a01b03191633179055610827806100326000396000f3fe608060405234801561001057600080fd5b50600436106100625760003560e01c80630178fe3f146100675780631fd185f21461009657806345f09ce9146100a05780635c622a0e146100ba578063c5a8a2ab146100cd578063ca8f8ff3146100e0575b600080fd5b61007a6100753660046106bb565b610112565b60405161008d97969594939291906106fe565b60405180910390f35b61009e610259565b005b6002546100ad9060ff1681565b60405161008d9190610757565b6100ad6100c83660046106bb565b6102ac565b61009e6100db36600461076b565b61037e565b6101026100ee3660046106bb565b600090815260016020526040902054151590565b604051901515815260200161008d565b600080600080600080600061013588600090815260016020526040902054151590565b61015a5760405162461bcd60e51b8152600401610151906107a1565b60405180910390fd5b6000888152600160208181526040808420815160e08101835281548152938101546001600160a01b0390811693850193909352600281015492831691840191909152906060830190600160a01b900460ff1660048111156101bd576101bd6106d4565b60048111156101ce576101ce6106d4565b81526020016002820160159054906101000a900460ff1660038111156101f6576101f66106d4565b6003811115610207576102076106d4565b81526003820154602080830191909152600490920154604091820152825191830151908301516060840151608085015160a086015160c090960151949f939e50919c509a509850919650945092505050565b61303973123456789012345678901234567890123456789073123456789012345678901234567890123456784560006002636169cb0063617423706102a387878787878787610444565b50505050505050565b6000818152600160208181526040808420815160e08101835281548152938101546001600160a01b03908116938501939093526002810154928316918401919091528392916060830190600160a01b900460ff166004811115610311576103116106d4565b6004811115610322576103226106d4565b81526020016002820160159054906101000a900460ff16600381111561034a5761034a6106d4565b600381111561035b5761035b6106d4565b815260038201546020820152600490910154604090910152606001519392505050565b6000828152600160205260409020546103a95760405162461bcd60e51b8152600401610151906107a1565b8060ff1660048111156103be576103be6106d4565b6000838152600160205260409020600201805460ff60a01b1916600160a01b8360048111156103ef576103ef6106d4565b0217905550817f199c49764c24c272ab05711f746ea69945084e537b524515f05902c3c9a7e9e88260ff16600481111561042b5761042b6106d4565b6040516104389190610757565b60405180910390a25050565b6000546001600160a01b031633146104ad5760405162461bcd60e51b815260206004820152602660248201527f4f6e6c7920746865206f776e65722063616e2063616c6c20746869732066756e6044820152656374696f6e2160d01b6064820152608401610151565b600087815260016020526040902054156104ff5760405162461bcd60e51b815260206004820152601360248201527210d85c99dbc8185b1c9958591e48195e1a5cdd606a1b6044820152606401610151565b6040518060e00160405280888152602001876001600160a01b03168152602001866001600160a01b03168152602001856004811115610540576105406106d4565b8152602001846003811115610557576105576106d4565b81526020808201859052604091820184905260008a8152600180835290839020845181559184015190820180546001600160a01b03199081166001600160a01b039384161790915592840151600283018054948516919092169081178255606085015192936001600160a81b03191617600160a01b8360048111156105de576105de6106d4565b0217905550608082015160028201805460ff60a81b1916600160a81b83600381111561060c5761060c6106d4565b021790555060a0820151816003015560c08201518160040155905050867fa75a03869a01f1e7c216fdbf9bf5e109766c92486ccd8b7512e4266a7c520595878787600481111561065e5761065e6106d4565b876003811115610670576106706106d4565b604080516001600160a01b03958616815293909416602084015260ff918216838501521660608201526080810186905260a0810185905290519081900360c00190a250505050505050565b6000602082840312156106cd57600080fd5b5035919050565b634e487b7160e01b600052602160045260246000fd5b600581106106fa576106fa6106d4565b9052565b8781526001600160a01b0387811660208301528616604082015260e0810161072960608301876106ea565b60048510610739576107396106d4565b8460808301528360a08301528260c083015298975050505050505050565b6020810161076582846106ea565b92915050565b6000806040838503121561077e57600080fd5b82359150602083013560ff8116811461079657600080fd5b809150509250929050565b60208082526030908201527f436172676f20776974682074686520676976656e20747261636b206e756d626560408201526f1c88191bd95cc81b9bdd08195e1a5cdd60821b60608201526080019056fea2646970667358221220e266524312729e5e7c30fe4387c6664454faafe796a0a19e355616181195941464736f6c63430008110033",
  "linkReferences": {},
  "deployedLinkReferences": {}
}