{
  "_format": "hh-sol-artifact-1",
  "contractName": "CargoTrackingDapp",
  "sourceName": "contracts/CargoTrackingDapp.sol",
  "abi": [
    {
      "inputs": [],
      "stateMutability": "nonpayable",
      "type": "constructor"
    },
    {
      "anonymous": false,
      "inputs": [
        {
          "indexed": true,
          "internalType": "uint256",
          "name": "cargo_tracking_number",
          "type": "uint256"
        },
        {
          "indexed": false,
          "internalType": "address",
          "name": "sender_address",
          "type": "address"
        },
        {
          "indexed": false,
          "internalType": "address",
          "name": "customer_address",
          "type": "address"
        },
        {
          "indexed": false,
          "internalType": "uint256",
          "name": "_Status",
          "type": "uint256"
        },
        {
          "indexed": false,
          "internalType": "uint256",
          "name": "Line",
          "type": "uint256"
        },
        {
          "indexed": false,
          "internalType": "uint256",
          "name": "shipping_date",
          "type": "uint256"
        },
        {
          "indexed": false,
          "internalType": "uint256",
          "name": "delivery_date",
          "type": "uint256"
        }
      ],
      "name": "CargoAdded",
      "type": "event"
    },
    {
      "anonymous": false,
      "inputs": [
        {
          "indexed": true,
          "internalType": "uint256",
          "name": "cargo_tracking_number",
          "type": "uint256"
        },
        {
          "indexed": false,
          "internalType": "enum CargoTrackingDapp.shipping",
          "name": "Status",
          "type": "uint8"
        }
      ],
      "name": "ChangeStatus",
      "type": "event"
    },
    {
      "inputs": [],
      "name": "Status",
      "outputs": [
        {
          "internalType": "enum CargoTrackingDapp.shipping",
          "name": "",
          "type": "uint8"
        }
      ],
      "stateMutability": "view",
      "type": "function"
    },
    {
      "inputs": [],
      "name": "callCreateFunction",
      "outputs": [],
      "stateMutability": "nonpayable",
      "type": "function"
    },
    {
      "inputs": [
        {
          "internalType": "uint256",
          "name": "cargo_tracking_number",
          "type": "uint256"
        },
        {
          "internalType": "enum CargoTrackingDapp.shipping",
          "name": "new_status",
          "type": "uint8"
        }
      ],
      "name": "changeStatus",
      "outputs": [],
      "stateMutability": "nonpayable",
      "type": "function"
    },
    {
      "inputs": [
        {
          "internalType": "uint256",
          "name": "cargo_tracking_number",
          "type": "uint256"
        },
        {
          "internalType": "address",
          "name": "sender_address",
          "type": "address"
        },
        {
          "internalType": "address",
          "name": "customer_address",
          "type": "address"
        },
        {
          "internalType": "enum CargoTrackingDapp.shipping",
          "name": "_Status",
          "type": "uint8"
        },
        {
          "internalType": "enum CargoTrackingDapp.Transportation",
          "name": "Line",
          "type": "uint8"
        },
        {
          "internalType": "uint256",
          "name": "shipping_date",
          "type": "uint256"
        },
        {
          "internalType": "uint256",
          "name": "delivery_date",
          "type": "uint256"
        }
      ],
      "name": "create",
      "outputs": [],
      "stateMutability": "nonpayable",
      "type": "function"
    },
    {
      "inputs": [
        {
          "internalType": "uint256",
          "name": "cargo_tracking_number",
          "type": "uint256"
        }
      ],
      "name": "getData",
      "outputs": [
        {
          "internalType": "uint256",
          "name": "",
          "type": "uint256"
        },
        {
          "internalType": "address",
          "name": "",
          "type": "address"
        },
        {
          "internalType": "address",
          "name": "",
          "type": "address"
        },
        {
          "internalType": "enum CargoTrackingDapp.shipping",
          "name": "",
          "type": "uint8"
        },
        {
          "internalType": "enum CargoTrackingDapp.Transportation",
          "name": "",
          "type": "uint8"
        },
        {
          "internalType": "uint256",
          "name": "",
          "type": "uint256"
        },
        {
          "internalType": "uint256",
          "name": "",
          "type": "uint256"
        }
      ],
      "stateMutability": "view",
      "type": "function"
    },
    {
      "inputs": [
        {
          "internalType": "uint256",
          "name": "cargo_tracking_number",
          "type": "uint256"
        }
      ],
      "name": "getStatus",
      "outputs": [
        {
          "internalType": "enum CargoTrackingDapp.shipping",
          "name": "",
          "type": "uint8"
        }
      ],
      "stateMutability": "view",
      "type": "function"
    },
    {
      "inputs": [],
      "name": "initialize",
      "outputs": [],
      "stateMutability": "nonpayable",
      "type": "function"
    },
    {
      "inputs": [
        {
          "internalType": "uint256",
          "name": "cargo_tracking_number",
          "type": "uint256"
        }
      ],
      "name": "isExist",
      "outputs": [
        {
          "internalType": "bool",
          "name": "",
          "type": "bool"
        }
      ],
      "stateMutability": "view",
      "type": "function"
    },
    {
      "inputs": [
        {
          "internalType": "address",
          "name": "_newOwner",
          "type": "address"
        }
      ],
      "name": "setOwner",
      "outputs": [],
      "stateMutability": "nonpayable",
      "type": "function"
    }
  ],
  "bytecode": "0x60806040523480156200001157600080fd5b50600080546001600160a01b031916331790556200002e62000034565b620004e4565b6200003e62000054565b6200004b613039620000a0565b50505050505050565b61303973123456789012345678901234567890123456789073123456789012345678901234567890123456784560006002636169cb0063617423706200004b8787878787878762000237565b6000808080808080620000c188600090815260016020526040902054151590565b6200012c5760405162461bcd60e51b815260206004820152603060248201527f436172676f20776974682074686520676976656e20747261636b206e756d626560448201526f1c88191bd95cc81b9bdd08195e1a5cdd60821b60648201526084015b60405180910390fd5b6000888152600160208181526040808420815160e08101835281548152938101546001600160a01b0390811693850193909352600281015492831691840191909152906060830190600160a01b900460ff166004811115620001925762000192620004ce565b6004811115620001a657620001a6620004ce565b81526020016002820160159054906101000a900460ff166003811115620001d157620001d1620004ce565b6003811115620001e557620001e5620004ce565b81526003820154602080830191909152600490920154604091820152825191830151908301516060840151608085015160a086015160c090960151949f939e50919c509a509850919650945092505050565b6000546001600160a01b03163314620002a25760405162461bcd60e51b815260206004820152602660248201527f4f6e6c7920746865206f776e65722063616e2063616c6c20746869732066756e6044820152656374696f6e2160d01b606482015260840162000123565b60008781526001602052604090205415620003005760405162461bcd60e51b815260206004820152601360248201527f436172676f20616c726561647920657869737400000000000000000000000000604482015260640162000123565b6040518060e00160405280888152602001876001600160a01b03168152602001866001600160a01b03168152602001856004811115620003445762000344620004ce565b81526020018460038111156200035e576200035e620004ce565b81526020808201859052604091820184905260008a8152600180835290839020845181559184015190820180546001600160a01b03199081166001600160a01b039384161790915592840151600283018054948516919092169081178255606085015192936001600160a81b03191617600160a01b836004811115620003e857620003e8620004ce565b0217905550608082015160028201805460ff60a81b1916600160a81b836003811115620004195762000419620004ce565b021790555060a0820151816003015560c08201518160040155905050867fa75a03869a01f1e7c216fdbf9bf5e109766c92486ccd8b7512e4266a7c52059587878760048111156200046e576200046e620004ce565b876003811115620004835762000483620004ce565b604080516001600160a01b03958616815293909416602084015260ff918216838501521660608201526080810186905260a0810185905290519081900360c00190a250505050505050565b634e487b7160e01b600052602160045260246000fd5b61098880620004f46000396000f3fe608060405234801561001057600080fd5b50600436106100935760003560e01c80635c622a0e116100665780635c622a0e146101055780637cc8552c146101185780638129fc1c1461012b578063c5a8a2ab14610133578063ca8f8ff31461014657600080fd5b80630178fe3f1461009857806313af4035146100c75780631fd185f2146100dc57806345f09ce9146100e4575b600080fd5b6100ab6100a636600461071b565b610178565b6040516100be979695949392919061075e565b60405180910390f35b6100da6100d53660046107d3565b6102bf565b005b6100da61030b565b6000546100f890600160a01b900460ff1681565b6040516100be91906107f5565b6100f861011336600461071b565b61035e565b6100da610126366004610818565b610430565b6100da610668565b6100da610141366004610890565b61067b565b61016861015436600461071b565b600090815260016020526040902054151590565b60405190151581526020016100be565b600080600080600080600061019b88600090815260016020526040902054151590565b6101c05760405162461bcd60e51b81526004016101b7906108bc565b60405180910390fd5b6000888152600160208181526040808420815160e08101835281548152938101546001600160a01b0390811693850193909352600281015492831691840191909152906060830190600160a01b900460ff16600481111561022357610223610734565b600481111561023457610234610734565b81526020016002820160159054906101000a900460ff16600381111561025c5761025c610734565b600381111561026d5761026d610734565b81526003820154602080830191909152600490920154604091820152825191830151908301516060840151608085015160a086015160c090960151949f939e50919c509a509850919650945092505050565b6000546001600160a01b031633146102e95760405162461bcd60e51b81526004016101b79061090c565b600080546001600160a01b0319166001600160a01b0392909216919091179055565b61303973123456789012345678901234567890123456789073123456789012345678901234567890123456784560006002636169cb00636174237061035587878787878787610430565b50505050505050565b6000818152600160208181526040808420815160e08101835281548152938101546001600160a01b03908116938501939093526002810154928316918401919091528392916060830190600160a01b900460ff1660048111156103c3576103c3610734565b60048111156103d4576103d4610734565b81526020016002820160159054906101000a900460ff1660038111156103fc576103fc610734565b600381111561040d5761040d610734565b815260038201546020820152600490910154604090910152606001519392505050565b6000546001600160a01b0316331461045a5760405162461bcd60e51b81526004016101b79061090c565b600087815260016020526040902054156104ac5760405162461bcd60e51b815260206004820152601360248201527210d85c99dbc8185b1c9958591e48195e1a5cdd606a1b60448201526064016101b7565b6040518060e00160405280888152602001876001600160a01b03168152602001866001600160a01b031681526020018560048111156104ed576104ed610734565b815260200184600381111561050457610504610734565b81526020808201859052604091820184905260008a8152600180835290839020845181559184015190820180546001600160a01b03199081166001600160a01b039384161790915592840151600283018054948516919092169081178255606085015192936001600160a81b03191617600160a01b83600481111561058b5761058b610734565b0217905550608082015160028201805460ff60a81b1916600160a81b8360038111156105b9576105b9610734565b021790555060a0820151816003015560c08201518160040155905050867fa75a03869a01f1e7c216fdbf9bf5e109766c92486ccd8b7512e4266a7c520595878787600481111561060b5761060b610734565b87600381111561061d5761061d610734565b604080516001600160a01b03958616815293909416602084015260ff918216838501521660608201526080810186905260a0810185905290519081900360c00190a250505050505050565b61067061030b565b610355613039610178565b6000828152600160205260409020546106a65760405162461bcd60e51b81526004016101b7906108bc565b6000828152600160205260409020600201805482919060ff60a01b1916600160a01b8360048111156106da576106da610734565b0217905550817f199c49764c24c272ab05711f746ea69945084e537b524515f05902c3c9a7e9e88260405161070f91906107f5565b60405180910390a25050565b60006020828403121561072d57600080fd5b5035919050565b634e487b7160e01b600052602160045260246000fd5b6005811061075a5761075a610734565b9052565b8781526001600160a01b0387811660208301528616604082015260e08101610789606083018761074a565b6004851061079957610799610734565b8460808301528360a08301528260c083015298975050505050505050565b80356001600160a01b03811681146107ce57600080fd5b919050565b6000602082840312156107e557600080fd5b6107ee826107b7565b9392505050565b60208101610803828461074a565b92915050565b8035600581106107ce57600080fd5b600080600080600080600060e0888a03121561083357600080fd5b87359650610843602089016107b7565b9550610851604089016107b7565b945061085f60608901610809565b935060808801356004811061087357600080fd5b9699959850939692959460a0840135945060c09093013592915050565b600080604083850312156108a357600080fd5b823591506108b360208401610809565b90509250929050565b60208082526030908201527f436172676f20776974682074686520676976656e20747261636b206e756d626560408201526f1c88191bd95cc81b9bdd08195e1a5cdd60821b606082015260800190565b60208082526026908201527f4f6e6c7920746865206f776e65722063616e2063616c6c20746869732066756e6040820152656374696f6e2160d01b60608201526080019056fea26469706673582212203e28228b30d2e4db88735595a7ab9e8551eb6297b313b5c0c418ead13a369f3864736f6c63430008110033",
  "linkReferences": {},
  "deployedLinkReferences": {}
}